:020000040800F2
:1000000000500020CD1D0008B51B0008BD1B0008D6
:10001000C51B0008CD1B0008D51B00080000000010
:10002000000000000000000000000000DD1B0008D0
:10003000E91B000800000000F51B0008011C000877
:10004000151E0008151E0008151E0008151E0008C4
:10005000151E0008151E00080D1C0008151E0008BE
:100060001B1C0008151E0008151E0008151E0008A0
:10007000151E0008151E0008151E0008151E000894
:10008000151E0008151E0008151E0008151E000884
:10009000151E0008151E0008151E0008151E000874
:1000A000151E0008151E0008151E0008151E000864
:1000B000291C0008151E0008151E0008151E000842
:1000C000151E0008151E0008151E0008151E000844
:1000D000151E0008151E0008151E0008151E000834
:1000E000151E0008151E0008151E0008000000005F
:1000F0000000000000000000000000000000000000
:0C01000000000000000000005FF808F1A3
:1001100010B5054C237833B9044B13B10448AFF341
:1001200000800123237010BDD801002000000000D2
:10013000AC73000808B5034B1BB103490348AFF388
:10014000008008BD00000000DC010020AC73000846
:10015000034613F8012B002AFBD1181A0138704707
:1001600081F0004102E000BF83F0004330B54FEA68
:1001700041044FEA430594EA050F08BF90EA020FD5
:100180001FBF54EA000C55EA020C7FEA645C7FEA68
:10019000655C00F0E2804FEA5454D4EB5555B8BF8B
:1001A0006D420CDD2C4480EA020281EA030382EAFC
:1001B000000083EA010180EA020281EA0303362D8E
:1001C00088BF30BD11F0004F4FEA01314FF4801C61
:1001D0004CEA113102D0404261EB410113F0004F73
:1001E0004FEA03334CEA133302D0524263EB43032A
:1001F00094EA050F00F0A780A4F10104D5F1200EC8
:100200000DDB02FA0EFC22FA05F2801841F1000122
:1002100003FA0EF2801843FA05F359410EE0A5F1F6
:1002200020050EF1200E012A03FA0EFC28BF4CF027
:10023000020C43FA05F3C01851EBE37101F00045DD
:1002400007D54FF0000EDCF1000C7EEB00006EEBEA
:100250000101B1F5801F1BD3B1F5001F0CD3490874
:100260005FEA30004FEA3C0C04F101044FEA4452CB
:1002700012F5800F80F09A80BCF1004F08BF5FEA52
:10028000500C50F1000041EB045141EA050130BD32
:100290005FEA4C0C404141EB0101013C28BFB1F544
:1002A000801FE9D291F0000F04BF01460020B1FA8F
:1002B00081F308BF2033A3F10B03B3F120020CDA62
:1002C0000C3208DD02F1140CC2F10C0201FA0CF040
:1002D00021FA02F10CE002F11402D8BFC2F1200CA5
:1002E00001FA02F120FA0CFCDCBF41EA0C0190405B
:1002F000E41AA2BF01EB0451294330BD6FEA0404A4
:100300001F3C1CDA0C340EDC04F11404C4F120028E
:1003100020FA04F001FA02F340EA030021FA04F3A0
:1003200045EA030130BDC4F10C04C4F1200220FAF7
:1003300002F001FA04F340EA0300294630BD21FA35
:1003400004F0294630BD94F0000F83F4801306BFFB
:1003500081F480110134013D4EE77FEA645C18BFEF
:100360007FEA655C29D094EA050F08BF90EA020F86
:1003700005D054EA000C04BF1946104630BD91EA7E
:10038000030F1EBF0021002030BD5FEA545C05D181
:100390004000494128BF41F0004130BD14F58004C0
:1003A0003CBF01F5801130BD01F0004545F0FE4134
:1003B00041F470014FF0000030BD7FEA645C1ABF69
:1003C000194610467FEA655C1CBF0B46024650EAA0
:1003D000013406BF52EA033591EA030F41F40021CC
:1003E00030BD00BF90F0000F04BF0021704730B552
:1003F0004FF4806404F132044FF000054FF0000127
:1004000050E700BF90F0000F04BF0021704730B5E7
:100410004FF4806404F1320410F0004548BF4042BC
:100420004FF000013EE700BF42004FEAE2014FEA11
:1004300031014FEA02701FBF12F07F4393F07F4FEC
:1004400081F06051704732F07F4208BF704793F0EF
:100450007F4F04BF41F40021704730B54FF4607402
:1004600001F0004521F000411CE700BF50EA010205
:1004700008BF704730B54FF000050AE050EA0102AE
:1004800008BF704730B511F0004502D5404261EB1E
:1004900041014FF4806404F132045FEA915C3FF45F
:1004A000D8AE4FF003025FEADC0C18BF03325FEAFC
:1004B000DC0C18BF033202EBDC02C2F1200300FAAD
:1004C00003FC20FA02F001FA03FE40EA0E0021FAD2
:1004D00002F11444BDE600BF70B54FF0FF0C4CF4C0
:1004E000E06C1CEA11541DBF1CEA135594EA0C0F72
:1004F00095EA0C0F00F0DEF82C4481EA030621EAAD
:100500004C5123EA4C5350EA013518BF52EA0335E7
:1005100041F4801143F4801338D0A0FB02CE4FF099
:100520000005E1FB02E506F00042E0FB03E54FF0C9
:100530000006E1FB03569CF0000F18BF4EF0010EC1
:10054000A4F1FF04B6F5007F64F5407404D25FEABD
:100550004E0E6D4146EB060642EAC62141EA555170
:100560004FEAC52040EA5E504FEACE2EB4F1FD0CB2
:1005700088BFBCF5E06F1ED8BEF1004F08BF5FEA30
:10058000500E50F1000041EB045170BD06F00046E2
:1005900046EA010140EA020081EA0301B4EB5C048F
:1005A000C2BFD4EB0C0541EA045170BD41F4801187
:1005B0004FF0000E013C00F3AB8014F1360FDEBFAC
:1005C000002001F0004170BDC4F10004203C35DA88
:1005D0000C341BDC04F11404C4F1200500FA05F30B
:1005E00020FA04F001FA05F240EA020001F00042AC
:1005F00021F0004110EBD37021FA04F642EB060122
:100600005EEA430E08BF20EAD37070BDC4F10C044B
:10061000C4F1200500FA04F320FA05F001FA04F20F
:1006200040EA020001F0004110EBD37041F10001FB
:100630005EEA430E08BF20EAD37070BDC4F1200506
:1006400000FA05F24EEA020E20FA04F301FA05F26E
:1006500043EA020321FA04F001F0004121FA04F216
:1006600020EA020000EBD3705EEA430E08BF20EAE6
:10067000D37070BD94F0000F0FD101F00046400020
:1006800041EB010111F4801F08BF013CF7D041EAA2
:10069000060195F0000F18BF704703F000465200A6
:1006A00043EB030313F4801F08BF013DF7D043EA77
:1006B0000603704794EA0C0F0CEA135518BF95EA2D
:1006C0000C0F0CD050EA410618BF52EA4306D1D1B4
:1006D00081EA030101F000414FF0000070BD50EAD3
:1006E000410606BF1046194652EA430619D094EA5D
:1006F0000C0F02D150EA013613D195EA0C0F05D147
:1007000052EA03361CBF104619460AD181EA03019A
:1007100001F0004141F0FE4141F470014FF0000052
:1007200070BD41F0FE4141F4780170BD70B54FF0ED
:10073000FF0C4CF4E06C1CEA11541DBF1CEA13556D
:1007400094EA0C0F95EA0C0F00F0A7F8A4EB05044F
:1007500081EA030E52EA03354FEA013100F0888046
:100760004FEA03334FF0805545EA131343EA12630F
:100770004FEA022245EA111545EA10654FEA0026C4
:100780000EF000419D4208BF964244F1FD0404F57D
:10079000407402D25B084FEA3202B61A65EB0305D9
:1007A0005B084FEA32024FF480104FF4002CB6EB96
:1007B000020E75EB030E22BFB61A754640EA0C0016
:1007C0005B084FEA3202B6EB020E75EB030E22BF56
:1007D000B61A754640EA5C005B084FEA3202B6EB97
:1007E000020E75EB030E22BFB61A754640EA9C0056
:1007F0005B084FEA3202B6EB020E75EB030E22BF26
:10080000B61A754640EADC0055EA060E18D04FEAE3
:10081000051545EA16754FEA06164FEAC30343EA83
:1008200052734FEAC2025FEA1C1CC0D111F4801F50
:100830000BD141EA00014FF000004FF0004CB6E749
:1008400011F4801F04BF01430020B4F1FD0C88BFE8
:10085000BCF5E06F3FF6AFAEB5EB030C04BFB6EBF3
:10086000020C5FEA500C50F1000041EB045170BDE6
:100870000EF0004E4EEA113114EB5C04C2BFD4EB13
:100880000C0541EA045170BD41F480114FF0000E97
:10089000013C90E645EA060E8DE60CEA135594EA13
:1008A0000C0F08BF95EA0C0F3FF43BAF94EA0C0F16
:1008B0000AD150EA01347FF434AF95EA0C0F7FF48B
:1008C00025AF104619462CE795EA0C0F06D152EADF
:1008D00003353FF4FDAE1046194622E750EA4106C3
:1008E00018BF52EA43067FF4C5AE50EA41047FF4D4
:1008F0000DAF52EA43057FF4EBAE12E74FF0FF3C39
:1009000006E000BF4FF0010C02E000BF4FF0010C09
:100910004DF804CD4FEA410C7FEA6C5C4FEA430C82
:1009200018BF7FEA6C5C1BD001B050EA410C0CBFD1
:1009300052EA430C91EA030F02BF90EA020F002033
:10094000704710F1000F91EA030F58BF994208BF9A
:1009500090422CBFD8176FEAE37040F00100704757
:100960004FEA410C7FEA6C5C02D150EA013C07D1AE
:100970004FEA430C7FEA6C5CD6D152EA033CD3D0F9
:100980005DF8040B704700BF8446104662468C46F3
:100990001946634600E000BF01B5FFF7B7FF002826
:1009A00048BF10F1000F01BD4DF808EDFFF7F4FF4F
:1009B0000CBF012000205DF808FB00BF4DF808EDDA
:1009C000FFF7EAFF34BF012000205DF808FB00BFFD
:1009D0004DF808EDFFF7E0FF94BF012000205DF81F
:1009E00008FB00BF4DF808EDFFF7CEFF94BF0120D4
:1009F00000205DF808FB00BF4DF808EDFFF7C4FFCD
:100A000034BF012000205DF808FB00BF4FEA410C15
:100A10007FEA6C5C02D150EA013C0AD14FEA430CF8
:100A20007FEA6C5C02D152EA033C02D14FF0000035
:100A300070474FF0010070474FEA410212F5001273
:100A400015D211D56FF47873B3EB625212D94FEA15
:100A5000C12343F0004343EA505311F0004F23FAFF
:100A600002F018BF404270474FF00000704750EA54
:100A7000013005D111F0004008BF6FF00040704711
:100A80004FF00000704700BF80F0004002E000BF60
:100A900081F0004142001FBF5FEA410392EA030F69
:100AA0007FEA226C7FEA236C6AD04FEA1262D2EBB3
:100AB0001363C1BFD218414048404140B8BF5B42B8
:100AC000192B88BF704710F0004F40F4000020F051
:100AD0007F4018BF404211F0004F41F4000121F067
:100AE0007F4118BF494292EA030F3FD0A2F10102B1
:100AF00041FA03FC10EB0C00C3F1200301FA03F1EF
:100B000000F0004302D5494260EB4000B0F5000F11
:100B100013D3B0F1807F06D340084FEA310102F1D0
:100B20000102FE2A51D2B1F1004F40EBC25008BF82
:100B300020F0010040EA03007047490040EB00004C
:100B4000013A28BFB0F5000FEDD2B0FA80FCACF14D
:100B5000080CB2EB0C0200FA0CF0AABF00EBC2507A
:100B600052421843BCBFD0401843704792F0000F68
:100B700081F4000106BF80F400000132013BB5E7BB
:100B80004FEA41037FEA226C18BF7FEA236C21D031
:100B900092EA030F04D092F0000F08BF0846704796
:100BA00090EA010F1CBF0020704712F07F4F04D164
:100BB000400028BF40F00040704712F100723CBF77
:100BC00000F50000704700F0004343F0FE4040F4A1
:100BD000000070477FEA226216BF08467FEA23635F
:100BE0000146420206BF5FEA412390EA010F40F44A
:100BF000800070474FF0000304E000BF10F0004396
:100C000048BF40425FEA000C08BF704743F096437C
:100C100001464FF000001CE050EA010208BF704797
:100C20004FF000030AE000BF50EA010208BF70471E
:100C300011F0004302D5404261EB41015FEA010C33
:100C400002BF84460146002043F0B64308BFA3F12B
:100C50008053A3F50003BCFA8CF2083AA3EBC2530D
:100C600010DB01FA02FC634400FA02FCC2F120022C
:100C7000BCF1004F20FA02F243EB020008BF20F063
:100C80000100704702F1200201FA02FCC2F12002C9
:100C900050EA4C0021FA02F243EB020008BF20EABE
:100CA000DC7070474FF0FF0C1CEAD0521EBF1CEAEC
:100CB000D15392EA0C0F93EA0C0F6FD01A4480EADA
:100CC000010C400218BF5FEA41211ED04FF00063C3
:100CD00043EA501043EA5111A0FB01310CF00040EF
:100CE000B1F5000F3EBF490041EAD3715B0040EA15
:100CF000010062F17F02FD2A1DD8B3F1004F40EBE5
:100D0000C25008BF20F00100704790F0000F0CF0B7
:100D1000004C08BF49024CEA502040EA51207F3A7B
:100D2000C2BFD2F1FF0340EAC250704740F4000056
:100D30004FF00003013A5DDC12F1190FDCBF00F047
:100D400000407047C2F10002410021FA02F1C2F1F5
:100D5000200200FA02FC5FEA310040F1000053EA91
:100D60004C0308BF20EADC70704792F0000F00F0DF
:100D7000004C02BF400010F4000F013AF9D040EAE5
:100D80000C0093F0000F01F0004C02BF490011F479
:100D9000000F013BF9D041EA0C018FE70CEAD15377
:100DA00092EA0C0F18BF93EA0C0F0AD030F0004CF7
:100DB00018BF31F0004CD8D180EA010000F00040AB
:100DC000704790F0000F17BF90F0004F084691F069
:100DD000000F91F0004F14D092EA0C0F01D14202A3
:100DE0000FD193EA0C0F03D14B0218BF084608D16C
:100DF00080EA010000F0004040F0FE4040F40000B6
:100E0000704740F0FE4040F4400070474FF0FF0C48
:100E10001CEAD0521EBF1CEAD15392EA0C0F93EA8F
:100E20000C0F69D0A2EB030280EA010C49024FEAE1
:100E3000402037D04FF0805343EA111143EA10139A
:100E40000CF000408B4238BF5B0042F17D024FF452
:100E5000000C8B4224BF5B1A40EA0C00B3EB510F2D
:100E600024BFA3EB510340EA5C00B3EB910F24BF16
:100E7000A3EB910340EA9C00B3EBD10F24BFA3EB9B
:100E8000D10340EADC001B0118BF5FEA1C1CE0D163
:100E9000FD2A3FF650AF8B4240EBC25008BF20F016
:100EA000010070470CF0004C4CEA50207F32C2BF6A
:100EB000D2F1FF0340EAC250704740F400004FF007
:100EC0000003013A37E792F0000F00F0004C02BF38
:100ED000400010F4000F013AF9D040EA0C0093F002
:100EE000000F01F0004C02BF490011F4000F013B5C
:100EF000F9D041EA0C0195E70CEAD15392EA0C0FC4
:100F000008D142027FF47DAF93EA0C0F7FF470AFFB
:100F1000084676E793EA0C0F04D14B023FF44CAF3E
:100F200008466EE730F0004C18BF31F0004CCAD1D3
:100F300030F000427FF45CAF31F000437FF43CAF0F
:100F40005FE700BF80B500AF322000F0C7FF03208D
:100F500000F096F8052000F0C1FF032000F090F8A3
:100F6000052000F0BBFF032000F08AF8012000F00C
:100F7000B5FF022000F084F8282000F063F80C2070
:100F800000F060F8062000F05DF800F002F800BF05
:100F900080BD80B500AF012000F054F8022000F0C1
:100FA0009DFF00BF80BD80B584B000AF03460A46F8
:100FB000FB711346BB71FB79002B01D1802300E04C
:100FC000C023FB73FA7BBB791344FB73FB7B18468E
:100FD00000F038F800BF1037BD4680BD80B582B044
:100FE00000AF786006E07B685A1C7A601B78184670
:100FF00000F00AF87B681B78002BF4D100BF00BF1B
:101000000837BD4680BD000080B582B000AF034602
:10101000FB71012201210A4801F06EFEFB791B09D8
:10102000DBB2184600F02CF8FB7903F00F03DBB2BB
:10103000184600F025F800BF0837BD4680BD00BF48
:10104000000C014080B582B000AF0346FB71002266
:1010500001210A4801F050FEFB791B09DBB218465A
:1010600000F00EF8FB7903F00F03DBB2184600F036
:1010700007F800BF0837BD4680BD00BF000C014027
:1010800080B582B000AF0346FB71FB7903F001032A
:10109000DBB21A460421154801F02EFEFB795B08ED
:1010A000DBB203F00103DBB21A4608210F4801F05E
:1010B00023FEFB799B08DBB203F00103DBB21A4687
:1010C00010210A4801F018FEFB79DB08DBB203F0BF
:1010D0000103DBB21A462021044801F00DFE00F0A6
:1010E00007F800BF0837BD4680BD00BF000C0140B7
:1010F00080B500AF01220221074801F0FDFD01206B
:1011000000F0ECFE00220221034801F0F5FD012071
:1011100000F0E4FE00BF80BD000C014080B582B04D
:1011200000AF0346FB71FB79DB10DBB203F0010378
:10113000DBB21A464FF48051144801F0DDFDFB7913
:101140009B10DBB203F00103DBB21A464FF40051EF
:101150000E4801F0D1FDFB795B10DBB203F0010317
:10116000DBB21A464FF48041084801F0C5FDFB7917
:1011700003F00103DBB21A464FF40041034801F0CB
:10118000BBFD00BF0837BD4680BD00BF000C01405D
:1011900080B58AB004AF414B1B78DAB2404B1B7864
:1011A0009A420DD13F4B1B78DAB23F4B1B789A42E3
:1011B00006D13E4B1B78DAB23D4B1B789A4248D0A1
:1011C000364B1B78DAB2364B1A70364B1B78DAB2D4
:1011D000354B1A70354B1B78DAB2354B1A70FFF766
:1011E000D8FE304B1B78DBB2002B07D1002100204A
:1011F000FFF7D9FE2F48FFF7F1FE2AE02B4B1B78B3
:10120000DBB2002B07D000210020FFF7CCFE2A48DC
:10121000FFF7E4FE1DE000210020FFF7C4FE1F4B96
:101220001B78DBB2002B03D12448FFF7D7FE10E078
:101230001A4B1B78DBB2012B03D12148FFF7CEFEFE
:1012400007E0164B1B78DBB2022B02D11D48FFF7DB
:10125000C5FE00210120FFF7A6FE1B4B1B681846A8
:10126000FFF7E2F802460B4618490978C9B2381D63
:101270000291CDE90023164A142103F04DFF3B1DD6
:101280001846FFF7ABFE114B1B78DBB21846FFF791
:1012900045FF00BF1837BD4680BD00BFBE0200201D
:1012A000010000200000002002000020BD020020FC
:1012B00003000020C8730008DC730008E87300080E
:1012C000F473000804740008B8020020BC02002077
:1012D0001074000880B483B000AF0346FB71FB7943
:1012E000642B01D96423FB71094AFB791370084B05
:1012F0001B78DBB21A4613469B0013445B001A4668
:10130000044B1B685A6300BF0C37BD4680BC704756
:10131000BF0200206C02002080B584B000AF0346FD
:10132000FB8000F0D1FDF860FB88012B29D1344B04
:101330001B68FA68D31AC82B5FD9314AFB6813605F
:10134000304B1B78DBB2002B0CBF01230023DBB238
:101350001A462C4B1A702B4B1B78DBB2002B09D191
:1013600000224FF46041284801F0C6FC274B0022C0
:101370001A7002E0254B32221A70254B01221A7096
:101380003BE0FB88042B38D1224B1B68FA68D31A48
:10139000C82B32D91F4AFB6813601A4B1B78DBB28B
:1013A000002B29D01C4B1B78DBB2002B0CBF012378
:1013B0000023DBB21A46184B1A70174B1B78DBB2AE
:1013C000002B12D000224FF440410F4801F094FC52
:1013D00001224FF400510C4801F08EFC0F4B00220B
:1013E0001A700A4B4B221A7002E0084B32221A7014
:1013F000074B01221A7000E000BF1037BD4680BDC8
:10140000C00200200000002000100140BF020020A8
:10141000C8020020C4020020BD020020BE0200203D
:1014200080B500AF00F0F8FC00F026F800F076F987
:1014300000F0B2F800F0FCF800F070F8FFF782FD61
:101440000A4802F041FA0021094802F0E7FA0020B8
:10145000FFF740FF074B1B78DBB2002BFAD0FFF7FA
:1014600097FE044B00221A70F4E700BF240200200C
:101470006C020020C802002080B594B000AF07F1D4
:10148000280328220021184603F0BDFE07F11403AB
:1014900000221A605A609A60DA601A613B1D0022CD
:1014A0001A605A609A60DA600223BB620123BB6350
:1014B0001023FB6300237B6407F12803184601F027
:1014C0004BFC0346002B01D000F096FA0F237B6102
:1014D0000023BB610023FB614FF480633B62002368
:1014E0007B6207F114030021184601F0B7FE0346A2
:1014F000002B01D000F080FA02237B604FF4004300
:10150000FB603B1D184602F023F80346002B01D078
:1015100000F072FA00BF5037BD4680BD80B584B080
:1015200000AF3B1D00221A605A609A60184B194A9E
:101530001A60174B00229A60154B01221A73144B44
:1015400000221A75124B4FF46022DA61104B002210
:101550005A600F4B01221A610D4800F0E3FC03466C
:10156000002B01D000F048FA01237B600123BB600F
:101570000023FB603B1D1946054800F097FF03461A
:10158000002B01D000F038FA00BF1037BD4680BDF7
:10159000F40100200024014080B586B000AF07F1BF
:1015A000080300221A605A609A60DA603B46002203
:1015B0001A605A601D4B4FF080421A601B4B41F677
:1015C0003F725A60194B00229A60184BF922DA6078
:1015D000164B00221A61154B00229A61134802F043
:1015E00023F90346002B01D000F006FA4FF4805394
:1015F000BB6007F1080319460C4802F063FC034680
:10160000002B01D000F0F8F900233B6000237B6041
:101610003B461946054802F0F1FF0346002B01D076
:1016200000F0EAF900BF1837BD4680BD2402002053
:1016300080B58EB000AF07F1280300221A605A600F
:101640009A60DA6007F1200300221A605A603B1D9D
:1016500000221A605A609A60DA601A615A619A61CF
:101660002C4B2D4A1A602B4B07225A60294B002223
:101670009A60284B40F2E732DA60264B00221A616A
:10168000244B00229A61234802F0CEF80346002B37
:1016900001D000F0B1F94FF48053BB6207F1280389
:1016A00019461C4802F00EFC0346002B01D000F046
:1016B000A3F9184802F05AF90346002B01D000F0B4
:1016C0009BF900233B6200237B6207F1200319464C
:1016D000104802F093FF0346002B01D000F08CF974
:1016E00060237B600023BB600023FB6000237B61E1
:1016F0003B1D00221946074802F022FB0346002B3F
:1017000001D000F079F9034800F022FA00BF383721
:10171000BD4680BD6C0200200004004080B588B04A
:1017200000AF07F1100300221A605A609A60DA6075
:10173000474B9B69464A43F010039361444B9B69B6
:1017400003F01003FB60FB68414B9B69404A43F088
:10175000200393613E4B9B6903F02003BB60BB6891
:101760003B4B9B693A4A43F004039361384B9B69B6
:1017700003F004037B607B68354B9B69344A43F07C
:1017800008039361324B9B6903F008033B603B689D
:1017900000224FF460412F4801F0AEFA00224FF4CE
:1017A00002612D4801F0A8FA00224FF27F012B4878
:1017B00001F0A2FA4FF460433B6101237B610023F7
:1017C000BB610223FB6107F110031946214801F0B8
:1017D0000FF905233B61224B7B610123BB6107F1BC
:1017E000100319461C4801F003F94FF402633B61F2
:1017F00001237B610023BB610223FB6107F110031E
:101800001946154801F0F4F84FF27F033B610123BC
:101810007B610023BB610223FB6107F110031946C2
:101820000E4801F0E5F800220021062001F0A9F899
:10183000062001F0C2F800220121082001F0A1F8E1
:10184000082001F0BAF800BF2037BD4680BD00BFB8
:10185000001002400010014000080140000C01404F
:101860000000111080B582B000AF78607B681B6803
:10187000B3F1804F40F09F8000224FF46041504808
:1018800001F03AFA4F4B1B78DBB2002B4CD04E4B99
:101890001B78DBB2002B0DD04C4B1B7803F00103FF
:1018A000DBB2002B40D101224FF40051444801F03B
:1018B00023FA39E0454B1B7803F00103DBB2002B20
:1018C0001FD1434B1B78022B14D0022B19DC002BA9
:1018D00002D0012B07D014E001224FF40051384808
:1018E00001F00AFA0DE001224FF48041344801F082
:1018F00003FA06E001224FF40041314801F0FCF9FF
:1019000000BF324B1B78062B0ED9314B1B785A1C6B
:10191000304B83FB0231D317C91A0B465B000B44D3
:10192000D11ACAB22A4B1A70284B1B7801335A427B
:1019300003F0070302F0070258BF5342DAB2234B09
:101940001A70214B1B78DBB2002B02D1204B1B7885
:1019500000E00023204A1370204800F0BBFB0A215E
:101960001E4800F091FC0346002B1ED11B4800F0DE
:1019700091FD03461A4A1360194B1B681846FFF77E
:1019800039F9034617491846FFF78CF903461649FB
:101990001846FFF73BFA03461A46144B1A60104BE1
:1019A0001B681B0ADAB2124B1A700C4800F040FC9C
:1019B000104B01221A7000BF0837BD4680BD00BF22
:1019C0000010014000000020BD020020C9020020DC
:1019D000CA02002056555555BE020020F4010020D1
:1019E000B40200203333534000F07F45B80200209A
:1019F000BC020020C802002080B400AF72B600BF55
:101A000000BFFDE780B485B000AF154B9B69144A59
:101A100043F001039361124B9B6903F00103BB6028
:101A2000BB680F4BDB690E4A43F08053D3610C4B0C
:101A3000DB6903F080537B607B680A4B5B68FB606B
:101A4000FB6823F0E063FB60FB6843F08063FB60AE
:101A5000044AFB68536000BF1437BD4680BC704722
:101A6000001002400000014080B588B000AF7860EF
:101A700007F1100300221A605A609A60DA607B68EE
:101A80001B68144A934221D1134B9B69124A43F4B9
:101A900000739361104B9B6903F40073FB60FB6858
:101AA0000D4B9B690C4A43F0040393610A4B9B69FD
:101AB00003F00403BB60BB6802233B6103237B612B
:101AC00007F110031946054800F092FF00BF2037C8
:101AD000BD4680BD002401400010024000080140C6
:101AE00080B584B000AF78607B681B68B3F1804F2D
:101AF00014D1154BDB69144A43F00103D361124B37
:101B0000DB6903F00103FB60FB68002202211C205B
:101B100000F037FF1C2000F050FF10E07B681B68CE
:101B20000A4A93420BD1084BDB69074A43F0020390
:101B3000D361054BDB6903F00203BB60BB6800BFE8
:101B40001037BD4680BD00BF0010024000040040B9
:101B500080B588B000AF786007F1100300221A60EA
:101B60005A609A60DA607B681B680F4A934217D10B
:101B70000E4B9B690D4A43F0040393610B4B9B6929
:101B800003F00403FB60FB6840233B6102237B619D
:101B90000223FB6107F110031946054800F028FFF6
:101BA00000BF2037BD4680BD000400400010024049
:101BB0000008014080B400AF00BFFDE780B400AF73
:101BC00000BFFDE780B400AF00BFFDE780B400AF09
:101BD00000BFFDE780B400AF00BFFDE780B400AFF9
:101BE00000BFBD4680BC704780B400AF00BFBD469B
:101BF00080BC704780B400AF00BFBD4680BC70475A
:101C000080B500AF00F04EF900BF80BD80B500AFD9
:101C1000012001F089F800BF80BD80B500AF04202D
:101C200001F082F800BF80BD80B500AF024801F02E
:101C300097FF00BF80BD00BF2402002080B400AF2A
:101C400001231846BD4680BC704780B582B000AF06
:101C50007860396003F02AFB034616221A604FF0C1
:101C6000FF3318460837BD4680BD80B582B000AF4F
:101C700078604FF0FF317868FFF7E7FF00BFFDE7BE
:101C800080B586B000AFF860B9607A6000237B61F0
:101C90000AE0AFF300800146BB685A1CBA60CAB2C2
:101CA0001A707B6901337B617A697B689A42F0DB49
:101CB0007B6818461837BD4680BD80B586B000AF3A
:101CC000F860B9607A6000237B6109E0BB685A1C48
:101CD000BA601B781846AFF300807B6901337B61E3
:101CE0007A697B689A42F1DB7B6818461837BD46F3
:101CF00080BD80B483B000AF78604FF0FF331846EA
:101D00000C37BD4680BC704780B483B000AF7860AC
:101D100039603B684FF400525A60002318460C3774
:101D2000BD4680BC704780B483B000AF78600123AB
:101D300018460C37BD4680BC704780B485B000AFF4
:101D4000F860B9607A60002318461437BD4680BC3D
:101D50007047000080B586B000AF7860144A154B1C
:101D6000D31A7B617B693B61134B1B68002B02D14B
:101D7000114B124A1A60104B1A687B6813443A6977
:101D80009A4207D203F092FA03460C221A604FF0EF
:101D9000FF3309E0084B1B68FB60074B1A687B6840
:101DA0001344054A1360FB6818461837BD4680BDCA
:101DB0000050002000040000CC020020200400207D
:101DC00080B400AF00BFBD4680BC7047FFF7F8FF8E
:101DD0000B480C490C4A002302E0D458C450043389
:101DE000C4188C42F9D3094A094C002301E013605E
:101DF0000432A242FBD303F05FFAFFF711FB7047F6
:101E000000000020D8010020E0770008D801002061
:101E100020040020FEE7000080B500AF084B1B68DF
:101E2000074A43F010031360032000F09FFD0F20CA
:101E300000F008F8FFF7E6FD0023184680BD00BF5C
:101E40000020024080B582B000AF7860124B1A6863
:101E5000124B1B7819464FF47A73B3FBF1F3B2FBC4
:101E6000F3F3184600F0B7FD0346002B01D0012321
:101E70000EE07B680F2B0AD8002279684FF0FF3004
:101E800000F07FFD064A7B681360002300E0012319
:101E900018460837BD4680BD040000200C00002015
:101EA0000800002080B400AF054B1B781A46054B94
:101EB0001B681344034A136000BFBD4680BC7047D3
:101EC0000C000020D002002080B400AF024B1B6841
:101ED0001846BD4680BC7047D002002080B584B053
:101EE00000AF7860FFF7F0FFB8607B68FB60FB68CD
:101EF000B3F1FF3F05D00A4B1B781A46FB68134429
:101F0000FB6000BFFFF7E0FF0246BB68D31AFA6828
:101F10009A42F7D800BF00BF1037BD4680BD00BF52
:101F20000C00002080B586B000AF78600023FB7500
:101F300000233B610023BB600023FB607B68002B18
:101F400001D10123BEE07B689B68002B7B689B6A04
:101F5000002B09D17B680022DA627B68002283F8BB
:101F600024207868FFF780FD786800F0F1FB0346D5
:101F7000FB757B689B6A03F01003002B40F099808F
:101F8000FB7D002B40F095807B689B6A23F488538F
:101F900023F0020343F002027B689A627B685A686E
:101FA0007B68DB691A437B681B7B5B001343BA6861
:101FB0001343BB607B689B68B3F5807F03D07B686D
:101FC0009B68012B02D14FF4807300E000233A6933
:101FD00013433B617B681B7D012B19D17B681B7B05
:101FE000002B09D17B689B69013B5A033B69134372
:101FF00043F400633B610BE07B689B6A43F0200283
:102000007B689A627B68DB6A43F001027B68DA6274
:102010007B681B685B6823F469417B681B683A69CD
:102020000A435A607B681B689A68284B13407A6899
:102030001268B9680B4393607B689B68B3F5807F37
:1020400003D07B689B68012B04D17B681B69013B33
:102050001B05FB607B681B68DB6A23F470017B68EF
:102060001B68FA680A43DA627B681B689A68184B37
:102070001340BA689A420BD17B680022DA627B680F
:102080009B6A23F0030343F001027B689A6218E025
:102090007B689B6A23F0120343F010027B689A620C
:1020A0007B68DB6A43F001027B68DA620123FB751F
:1020B00007E07B689B6A43F010027B689A62012309
:1020C000FB75FB7D18461837BD4680BDFDF7E1FF67
:1020D000FE0E1FFF80B584B000AF78600023FB7355
:1020E0007B6893F82430012B01D1022398E07B68B0
:1020F000012283F82420786800F0D0FA0346FB73AD
:10210000FB7B002B40F087807B689B6A23F4407345
:1021100023F0010343F480727B689A627B681B683A
:10212000414A934205D1414B5B6803F47023002B75
:1021300015D17B689B6A23F480127B689A627B6866
:102140001B685B6803F48063002B26D07B689B6A66
:1021500023F4405343F480527B689A621DE07B680D
:102160009B6A43F480127B689A627B681B682F4AE3
:10217000934204D07B681B682B4A93420DD12B4BB2
:102180005B6803F48063002B07D07B689B6A23F4B1
:10219000405343F480527B689A627B689B6A03F4E5
:1021A0008053002B06D07B68DB6A23F006027B6835
:1021B000DA6202E07B680022DA627B68002283F840
:1021C00024207B681B686FF002021A607B681B6822
:1021D0009B6803F46023B3F5602F13D17B681B6801
:1021E000114A934205D1114B5B6803F47023002B15
:1021F00008D17B681B689A687B681B6842F4A00260
:102200009A600CE07B681B689A687B681B6842F4E4
:1022100080129A6003E07B68002283F82420FB7B15
:1022200018461037BD4680BD0028014000240140FB
:1022300080B584B000AF78600023FB737B6893F8AF
:102240002430012B01D102231AE07B68012283F89C
:102250002420786800F07CFA0346FB73FB7B002B9C
:1022600009D17B689B6A23F4885323F0010343F070
:1022700001027B689A627B68002283F82420FB7B42
:1022800018461037BD4680BD90B587B000AF786066
:10229000396000237B610023FB6000233B61FFF773
:1022A00013FE78617B681B689B6803F48073002BC6
:1022B0000BD07B689B6A43F020027B689A627B6844
:1022C000002283F824200123D3E07B681B685B682D
:1022D00003F48073002B31D17B681B68DB6A03F445
:1022E0007003002B2AD121E03B68B3F1FF3F1DD0E2
:1022F0003B68002B07D0FFF7E7FD02467B69D31A46
:102300003A689A4212D27B681B681B6803F002038A
:10231000002B0BD17B689B6A43F004027B689A62B6
:102320007B68002283F824200323A2E07B681B68DB
:102330001B6803F00203002BD6D070E04F4B1C68E3
:10234000022001F0BBF90346B4FBF3F27B681B6883
:1023500019694B4B0B40002B18D17B681B68D9685F
:10236000484B0B40002B11D17B681B681969464B09
:102370000B40002B08D17B681B68D968434B0B408E
:10238000002B01D1142320E029231EE07B681B6869
:1023900019693D4B0B40002B06D17B681B68D9683F
:1023A0003A4B0B40002B0DD07B681B681969384BEA
:1023B0000B40002B08D17B681B68D968344B0B405D
:1023C000002B01D1542300E0FC2302FB03F33B610B
:1023D00021E03B68B3F1FF3F1AD03B68002B07D0E8
:1023E000FFF772FD02467B69D31A3A689A420FD210
:1023F000FB683A699A420BD97B689B6A43F00402F6
:102400007B689A627B68002283F82420032330E0F3
:10241000FB680133FB60FB683A699A42D9D87B6854
:102420001B686FF012021A607B689B6A43F40072AB
:102430007B689A627B681B689B6803F46023B3F532
:10244000602F15D17B681B7B002B11D17B689B6AA9
:1024500023F480727B689A627B689B6A03F48053E2
:10246000002B05D17B689B6A43F001027B689A626E
:10247000002318461C37BD4690BD00BF0400002055
:10248000244992242449920092244912922449001A
:102490004992240080B483B000AF78607B681B68E9
:1024A000DB6C18460C37BD4680BC704780B485B0E5
:1024B00000AF786039600023FB730023BB607B684A
:1024C00093F82430012B01D10223DCE07B68012248
:1024D00083F824203B685B68062B1CD87B681B684C
:1024E000596B3B685A6813469B001344053B1F22F7
:1024F00002FA03F3DB4319403B6818683B685A68EB
:1025000013469B001344053B00FA03F27B681B68EB
:102510000A435A633CE03B685B680C2B1CD87B6821
:102520001B68196B3B685A6813469B001344233B96
:102530001F2202FA03F3DB4319403B6818683B682B
:102540005A6813469B001344233B00FA03F27B684E
:102550001B680A431A631BE07B681B68D96A3B68E7
:102560005A6813469B001344413B1F2202FA03F3AF
:10257000DB4319403B6818683B685A6813469B0068
:102580001344413B00FA03F27B681B680A43DA629A
:102590003B681B68092B1CD97B681B68D9683B68A2
:1025A0001A6813465B0013441E3B072202FA03F32A
:1025B000DB4319403B6898683B681A6813465B0028
:1025C00013441E3B00FA03F27B681B680A43DA607F
:1025D00019E07B681B6819693B681A6813465B0041
:1025E0001344072202FA03F3DB4319403B6898685F
:1025F0003B681A6813465B00134400FA03F27B68D9
:102600001B680A431A613B681B68102B03D03B68A8
:102610001B68112B32D17B681B681D4A934225D160
:102620007B681B689B6803F40003002B26D17B6842
:102630001B689A687B681B6842F400029A603B68DA
:102640001B68102B1AD1134B1B68134AA2FB0323E0
:102650009A0C13469B0013445B00BB6002E0BB680E
:10266000013BBB60BB68002BF9D107E07B689B6A2C
:1026700043F020027B689A620123FB737B6800228F
:1026800083F82420FB7B18461437BD4680BC704776
:10269000002401400400002083DE1B4380B584B089
:1026A00000AF78600023FB600023BB607B681B6881
:1026B0009B6803F00103012B40D07B681B689A687C
:1026C0007B681B6842F001029A601F4B1B681F4A1F
:1026D000A2FB03239B0CBB6002E0BB68013BBB6019
:1026E000BB68002BF9D1FFF7EFFBF8601FE0FFF7A5
:1026F000EBFB0246FB68D31A022B18D97B681B68D8
:102700009B6803F00103012B11D07B689B6A43F0A7
:1027100010027B689A627B68DB6A43F001027B6887
:10272000DA627B68002283F82420012307E07B68BB
:102730001B689B6803F00103012BD8D100231846C6
:102740001037BD4680BD00BF0400002083DE1B4360
:1027500080B584B000AF78600023FB607B681B68A5
:102760009B6803F00103012B2ED17B681B689A68DC
:102770007B681B6822F001029A60FFF7A5FBF860F6
:102780001BE0FFF7A1FB0246FB68D31A022B14D90A
:102790007B681B689B6803F00103012B0DD17B68EC
:1027A0009B6A43F010027B689A627B68DB6A43F0A5
:1027B00001027B68DA62012307E07B681B689B6883
:1027C00003F00103012BDCD0002318461037BD466F
:1027D00080BD000080B485B000AF78607B6803F0F6
:1027E0000703FB600C4BDB68BB60BA684FF6FF0366
:1027F0001340BB60FB681A02BB68134343F0BF631E
:1028000043F40033BB60044ABB68D36000BF143795
:10281000BD4680BC704700BF00ED00E080B400AF53
:10282000044BDB681B0A03F007031846BD4680BC57
:10283000704700BF00ED00E080B483B000AF0346F6
:10284000FB7197F90730002B0BDBFB7903F01F02BC
:10285000064997F907305B09012000FA02F241F8B6
:10286000232000BF0C37BD4680BC704700E100E06C
:1028700080B483B000AF03463960FB7197F907302D
:10288000002B0ADB3B68DAB20C4997F907301201DA
:10289000D2B20B4483F800230AE03B68DAB208495D
:1028A000FB7903F00F03043B1201D2B20B441A76FA
:1028B00000BF0C37BD4680BC704700BF00E100E0A0
:1028C00000ED00E080B489B000AFF860B9607A60D4
:1028D000FB6803F00703FB61FB69C3F10703042BEB
:1028E00028BF0423BB61FB690433062B02D9FB69B3
:1028F000033B00E000237B614FF0FF32BB6902FA2B
:1029000003F3DA43BB681A407B699A404FF0FF310A
:102910007B6901FA03F3D9437B680B4013431846E4
:102920002437BD4680BC704780B582B000AF786068
:102930007B68013BB3F1807F01D301230FE00A4A9A
:102940007B68013B53600F214FF0FF30FFF790FF92
:10295000054B00229A60044B07221A600023184698
:102960000837BD4680BD00BF10E000E080B582B0F2
:1029700000AF78607868FFF72DFF00BF0837BD46CD
:1029800080BD80B586B000AF0346B9607A60FB7346
:1029900000237B61FFF742FF78617A68B968786944
:1029A000FFF790FF024697F90F3011461846FFF7E0
:1029B0005FFF00BF1837BD4680BD80B582B000AF55
:1029C0000346FB7197F907301846FFF735FF00BF44
:1029D0000837BD4680BD80B582B000AF78607868AA
:1029E000FFF7A2FF034618460837BD4680BD00002A
:1029F00080B48BB000AF7860396000237B62002325
:102A00003B6269E101227B6A02FA03F3FB613B68E6
:102A10001B68FA691340BB61BA69FB699A4240F0CE
:102A200058813B685B689A4A93425ED0984A9342C9
:102A300075D8984A934258D0964A93426FD8964A8E
:102A4000934252D0944A934269D8944A93424CD0CC
:102A5000924A934263D8924A934246D0904A934214
:102A60005DD8122B2AD8122B59D801A252F823F084
:102A7000EB2A0008C52A0008D72A0008192B0008ED
:102A80001F2B00081F2B00081F2B00081F2B0008FE
:102A90001F2B00081F2B00081F2B00081F2B0008EE
:102AA0001F2B00081F2B00081F2B00081F2B0008DE
:102AB0001F2B0008CD2A0008E12A0008794A93421A
:102AC00013D02CE03B68DB683B6229E03B68DB68A5
:102AD00004333B6224E03B68DB6808333B621FE061
:102AE0003B68DB680C333B621AE03B689B68002B59
:102AF00002D104233B6213E03B689B68012B05D1A4
:102B000008233B627B68FA691A6109E008233B628B
:102B10007B68FA695A6103E000233B6200E000BF72
:102B2000BB69FF2B01D87B6801E07B6804337B61C4
:102B3000BB69FF2B02D87B6A9B0002E07B6A083BE3
:102B40009B003B617B691A680F213B6901FA03F323
:102B5000DB431A40396A3B6901FA03F31A437B6984
:102B60001A603B685B6803F08053002B00F0B18073
:102B70004D4B9B694C4A43F0010393614A4B9B695F
:102B800003F00103BB60BB68484A7B6A9B080233C1
:102B900052F82330FB607B6A03F003039B000F2293
:102BA00002FA03F3DB43FA681340FB607B68404A98
:102BB000934213D07B683F4A93420DD07B683E4AD4
:102BC000934207D07B683D4A934201D1032306E03C
:102BD000042304E0022302E0012300E000237A6AD8
:102BE00002F0030292009340FA681343FB602F49FE
:102BF0007B6A9B080233FA6841F823203B685B68D4
:102C000003F48013002B06D02D4B9A682C49BB6926
:102C100013438B6006E02A4B9A68BB69DB43284963
:102C200013408B603B685B6803F40013002B06D0F5
:102C3000234BDA682249BB691343CB6006E0204B83
:102C4000DA68BB69DB431E491340CB603B685B68B5
:102C500003F40033002B06D0194B5A681849BB699E
:102C600013434B6006E0164B5A68BB69DB431449BB
:102C700013404B603B685B6803F48033002B21D02A
:102C80000F4B1A680E49BB6913430B6021E000BF6C
:102C9000000032100000311000002210000021104E
:102CA000000012100000111000100240000001404E
:102CB00000080140000C01400010014000140140D8
:102CC000000401400B4B1A68BB69DB430949134000
:102CD0000B607B6A01337B623B681A687B6A22FA6D
:102CE00003F3002B7FF48EAE00BF00BF2C37BD4630
:102CF00080BC70470004014080B483B000AF7860AE
:102D00000B467B8013467B707B78002B03D07A8840
:102D10007B681A6103E07B881A047B681A6100BF34
:102D20000C37BD4680BC704780B582B000AF03460B
:102D3000FB80084B5A69FB881340002B06D0054ADC
:102D4000FB885361FB881846FEF7E6FA00BF083798
:102D5000BD4680BD0004014080B586B000AF7860FC
:102D60007B68002B01D1012372E27B681B6803F0B2
:102D70000103002B00F08780924B5B6803F00C038B
:102D8000042B0CD08F4B5B6803F00C03082B12D183
:102D90008C4B5B6803F48033B3F5803F0BD1894BD8
:102DA0001B6803F40033002B6CD07B685B68002B3E
:102DB00068D101234CE27B685B68B3F5803F06D1A4
:102DC000804B1B687F4A43F4803313602EE07B689E
:102DD0005B68002B0CD17B4B1B687A4A23F4803351
:102DE0001360784B1B68774A23F4802313601DE03F
:102DF0007B685B68B3F5A02F0CD1724B1B68714ADE
:102E000043F4802313606F4B1B686E4A43F4803396
:102E100013600BE06B4B1B686A4A23F4803313602A
:102E2000684B1B68674A23F4802313607B685B68E8
:102E3000002B13D0FFF748F8386108E0FFF744F89B
:102E400002463B69D31A642B01D9032300E25D4B90
:102E50001B6803F40033002BF0D014E0FFF734F8C4
:102E6000386108E0FFF730F802463B69D31A642B5B
:102E700001D90323ECE1534B1B6803F40033002B0F
:102E8000F0D100E000BF7B681B6803F00203002B59
:102E900063D04C4B5B6803F00C03002B0BD0494B09
:102EA0005B6803F00C03082B1CD1464B5B6803F4F2
:102EB0008033002B16D1434B1B6803F00203002B19
:102EC00005D07B681B69012B01D00123C0E13D4B7C
:102ED0001B6823F0F8027B685B69DB003949134308
:102EE0000B603AE07B681B69002B20D0364B012237
:102EF0001A60FEF7E9FF386108E0FEF7E5FF0246D9
:102F00003B69D31A022B01D90323A1E12D4B1B6886
:102F100003F00203002BF0D02A4B1B6823F0F802C9
:102F20007B685B69DB00274913430B6015E0264B88
:102F300000221A60FEF7C8FF386108E0FEF7C4FF00
:102F400002463B69D31A022B01D9032380E11D4BB2
:102F50001B6803F00203002BF0D17B681B6803F0B1
:102F60000803002B3AD07B689B69002B19D0174BC4
:102F700001221A60FEF7A8FF386108E0FEF7A4FFFF
:102F800002463B69D31A022B01D9032360E10D4BA2
:102F90005B6A03F00203002BF0D0012000F0BAFAC4
:102FA0001CE00A4B00221A60FEF78EFF38610FE02A
:102FB000FEF78AFF02463B69D31A022B08D9032386
:102FC00046E100BF0010024000004242800442423D
:102FD000924B5B6A03F00203002BE9D17B681B680C
:102FE00003F00403002B00F0A6800023FB758B4B3D
:102FF000DB6903F08053002B0DD1884BDB69874AD6
:1030000043F08053D361854BDB6903F08053BB6091
:10301000BB680123FB75824B1B6803F48073002B94
:1030200018D17F4B1B687E4A43F480731360FEF710
:103030004BFF386108E0FEF747FF02463B69D31AB1
:10304000642B01D9032303E1754B1B6803F48073E0
:10305000002BF0D07B68DB68012B06D16F4B1B6A1D
:103060006E4A43F0010313622DE07B68DB68002B9E
:103070000CD16A4B1B6A694A23F001031362674B48
:103080001B6A664A23F0040313621CE07B68DB685A
:10309000052B0CD1614B1B6A604A43F00403136299
:1030A0005E4B1B6A5D4A43F0010313620BE05B4B0E
:1030B0001B6A5A4A23F001031362584B1B6A574A92
:1030C00023F0040313627B68DB68002B15D0FEF746
:1030D000FBFE38610AE0FEF7F7FE02463B69D31AB1
:1030E00041F28832934201D90323B1E04B4B1B6A72
:1030F00003F00203002BEED014E0FEF7E5FE38618A
:103100000AE0FEF7E1FE02463B69D31A41F288323B
:10311000934201D903239BE0404B1B6A03F0020357
:10312000002BEED1FB7D012B05D13C4BDB693B4AEB
:1031300023F08053D3617B68DB69002B00F087802C
:10314000364B5B6803F00C03082B61D07B68DB69AE
:10315000022B46D1334B00221A60FEF7B5FE3861D0
:1031600008E0FEF7B1FE02463B69D31A022B01D9F3
:1031700003236DE0294B1B6803F00073002BF0D193
:103180007B681B6AB3F5803F08D1244B5B6823F44E
:1031900000327B689B68214913434B601F4B5B687F
:1031A00023F474127B68196A7B685B6A0B431B49C2
:1031B00013434B601B4B01221A60FEF785FE3861FA
:1031C00008E0FEF781FE02463B69D31A022B01D9C3
:1031D00003233DE0114B1B6803F00073002BF0D07C
:1031E00035E0104B00221A60FEF76EFE386108E0F1
:1031F000FEF76AFE02463B69D31A022B01D903236C
:1032000026E0064B1B6803F00073002BF0D11EE094
:103210007B68DB69012B07D1012319E00010024014
:1032200000700040600042420B4B5B68FB60FB6833
:1032300003F480327B681B6A9A4206D1FB6803F470
:1032400070127B685B6A9A4201D0012300E0002380
:1032500018461837BD4680BD0010024080B584B0C6
:1032600000AF786039607B68002B01D10123D0E08A
:103270006A4B1B6803F007033A689A4210D9674B00
:103280001B6823F0070265493B6813430B60634BDF
:103290001B6803F007033A689A4201D00123B8E0A3
:1032A0007B681B6803F00203002B20D07B681B683F
:1032B00003F00403002B05D0594B5B68584A43F4D4
:1032C000E06353607B681B6803F00803002B05D0A4
:1032D000534B5B68524A43F460535360504B5B68F6
:1032E00023F0F0027B689B684D4913434B607B6879
:1032F0001B6803F00103002B40D07B685B68012B47
:1033000007D1474B1B6803F40033002B15D1012371
:103310007FE07B685B68022B07D1414B1B6803F0A1
:103320000073002B09D1012373E03D4B1B6803F0B0
:103330000203002B01D101236BE0394B5B6823F0C2
:1033400003027B685B68364913434B60FEF7BCFDA4
:10335000F8600AE0FEF7B8FD0246FB68D31A41F2B6
:103360008832934201D9032353E02D4B5B6803F06D
:103370000C027B685B689B009A42EBD1274B1B6871
:1033800003F007033A689A4210D2244B1B6823F0DB
:10339000070222493B6813430B60204B1B6803F074
:1033A00007033A689A4201D0012332E07B681B6828
:1033B00003F00403002B08D0194B5B6823F4E06290
:1033C0007B68DB68164913434B607B681B6803F01E
:1033D0000803002B09D0124B5B6823F460527B6812
:1033E0001B69DB000E4913434B6000F021F80246D5
:1033F0000B4B5B681B0903F00F030A49CB5C22FAF5
:1034000003F3094A1360094B1B681846FEF71AFDBF
:10341000002318461037BD4680BD00BF0020024083
:103420000010024020740008040000200800002062
:1034300080B487B000AF0023FB600023BB60002393
:103440007B6100237B6000233B611E4B5B68FB605C
:10345000FB6803F00C03042B02D0082B03D027E0F9
:10346000194B3B6127E0FB689B0C03F00F03174AE5
:10347000D35C7B60FB6803F48033002B10D0114BCE
:103480005B685B0C03F00103114AD35CBB607B6893
:103490000D4A03FB02F2BB68B2FBF3F37B6104E06D
:1034A0007B680C4A02FB03F37B617B693B6102E0B2
:1034B000054B3B6100BF3B6918461C37BD4680BCCD
:1034C000704700BF0010024000127A0038740008F4
:1034D0004874000800093D0080B400AF024B1B682F
:1034E0001846BD4680BC70470400002080B500AF80
:1034F000FFF7F2FF0246054B5B68DB0A03F00703A8
:103500000349CB5C22FA03F3184680BD0010024049
:103510003074000880B485B000AF78600A4B1B6837
:103520000A4AA2FB03235B0A7A6802FB03F3FB60EF
:1035300000BFFB685A1EFA60002BF9D100BF00BF24
:103540001437BD4680BC704704000020D34D621084
:1035500080B586B000AF786000233B610023FB603C
:103560007B681B6803F00103002B7DD00023FB75F3
:103570004F4BDB6903F08053002B0DD14C4BDB69C3
:103580004B4A43F08053D361494BDB6903F08053CE
:10359000BB60BB680123FB75464B1B6803F480735B
:1035A000002B18D1434B1B68424A43F480731360CD
:1035B000FEF78AFC386108E0FEF786FC02463B69AC
:1035C000D31A642B01D903236DE03A4B1B6803F433
:1035D0008073002BF0D0364B1B6A03F44073FB6002
:1035E000FB68002B2ED07B685B6803F44073FA689D
:1035F0009A4227D02E4B1B6A23F44073FB602E4B5C
:1036000001221A602C4B00221A60294AFB681362BF
:10361000FB6803F00103002B14D0FEF755FC386162
:103620000AE0FEF751FC02463B69D31A41F28832A8
:10363000934201D9032336E01D4B1B6A03F00203BA
:10364000002BEED01A4B1B6A23F440727B685B6838
:10365000174913430B62FB7D012B05D1144BDB692A
:10366000134A23F08053D3617B681B6803F0020385
:10367000002B08D00E4B5B6823F440427B689B68AC
:103680000B4913434B607B681B6803F01003002B4E
:1036900008D0074B5B6823F480027B68DB68044931
:1036A00013434B60002318461837BD4680BD00BF4A
:1036B00000100240007000404004424280B588B0D3
:1036C00000AF786000237B610023FB6100233B6136
:1036D0000023FB600023BB617B68102B0AD07B6852
:1036E000102B00F28A807B68012B45D07B68022B6F
:1036F00075D082E0464B5B68FB60454B1B6803F06E
:103700008073002B7BD0FB689B0C03F00F03414AB6
:10371000D35C3B61FB6803F48033002B15D03C4B3A
:103720005B685B0C03F001033B4AD35C7B61FB6885
:1037300003F48033002B0DD0384A7B69B2FBF3F2DF
:103740003B6902FB03F3FB6104E03B69344A02FB83
:1037500003F3FB612E4B5B6803F48003B3F5800F2A
:1037600002D1FB69BB614AE0FB695B002D4AA2FB09
:1037700003235B08BB6142E0254B1B6AFB60FB68CF
:1037800003F44073B3F5807F08D1FB6803F00203B4
:10379000002B03D04FF40043BB611FE0FB6803F430
:1037A0004073B3F5007F09D1194B5B6A03F0020344
:1037B000002B03D049F64043BB610FE0FB6803F4E4
:1037C0004073B3F5407F1CD1114B1B6803F40033E9
:1037D000002B16D04FF22443BB6112E011E0FFF73B
:1037E00085FE02460A4B5B689B0B03F00303013323
:1037F0005B00B2FBF3F3BB6104E000BF02E000BF7B
:1038000000E000BFBB6918462037BD4680BD00BF41
:10381000001002404C7400085C74000800127A002A
:1038200000093D00ABAAAAAA80B582B000AF7860BB
:103830007B68002B01D1012341E07B6893F83D3088
:10384000DBB2002B06D17B68002283F83C2078682D
:10385000FEF746F97B68022283F83D207B681A68F0
:103860007B6804331946104600F018FC7B6801227F
:1038700083F846207B68012283F83E207B68012282
:1038800083F83F207B68012283F840207B68012277
:1038900083F841207B68012283F842207B68012263
:1038A00083F843207B68012283F844207B6801224F
:1038B00083F845207B68012283F83D2000231846C9
:1038C0000837BD4680BD000080B485B000AF786089
:1038D0007B6893F83D30DBB2012B01D001233AE045
:1038E0007B68022283F83D207B681B68DA687B686E
:1038F0001B6842F00102DA607B681B68184A934239
:103900000ED07B681B68B3F1804F09D07B681B68C1
:10391000144A934204D07B681B68134A934211D126
:103920007B681B689B6803F00703FB60FB68062B42
:1039300010D07B681B681A687B681B6842F0010224
:103940001A6007E07B681B681A687B681B6842F096
:1039500001021A60002318461437BD4680BC704728
:10396000002C0140000400400008004080B582B0F7
:1039700000AF78607B68002B01D1012341E07B68B8
:1039800093F83D30DBB2002B06D17B68002283F830
:103990003C20786800F039F87B68022283F83D20EB
:1039A0007B681A687B6804331946104600F076FB82
:1039B0007B68012283F846207B68012283F83E2041
:1039C0007B68012283F83F207B68012283F8402036
:1039D0007B68012283F841207B68012283F8422022
:1039E0007B68012283F843207B68012283F844200E
:1039F0007B68012283F845207B68012283F83D2003
:103A0000002318460837BD4680BD80B483B000AFA0
:103A1000786000BF0C37BD4680BC704780B584B06D
:103A200000AF786039603B68002B09D17B6893F860
:103A30003E30DBB2012B14BF01230023DBB222E0B6
:103A40003B68042B09D17B6893F83F30DBB2012B34
:103A500014BF01230023DBB215E03B68082B09D11A
:103A60007B6893F84030DBB2012B14BF01230023A5
:103A7000DBB208E07B6893F84130DBB2012B14BF66
:103A800001230023DBB2002B01D001235EE03B6861
:103A9000002B04D17B68022283F83E2013E03B68B0
:103AA000042B04D17B68022283F83F200BE03B68A3
:103AB000082B04D17B68022283F8402003E07B6856
:103AC000022283F841207B681B680122396818466E
:103AD00000F070FD7B681B681E4A934207D17B682B
:103AE0001B685A6C7B681B6842F400425A647B680E
:103AF0001B68184A93420ED07B681B68B3F1804F55
:103B000009D07B681B68144A934204D07B681B6809
:103B1000124A934211D17B681B689B6803F007032C
:103B2000FB60FB68062B10D07B681B681A687B68FB
:103B30001B6842F001021A6007E07B681B681A6884
:103B40007B681B6842F001021A6000231846103798
:103B5000BD4680BD002C014000040040000800402C
:103B600080B584B000AF78607B681B68DB68FB6061
:103B70007B681B681B69BB60BB6803F00203002BFA
:103B800020D0FB6803F00203002B1BD07B681B686E
:103B90006FF002021A617B6801221A777B681B684A
:103BA0009B6903F00303002B03D0786800F05AFAF6
:103BB00005E0786800F04DFA786800F05CFA7B6800
:103BC00000221A77BB6803F00403002B20D0FB68A7
:103BD00003F00403002B1BD07B681B686FF004020A
:103BE0001A617B6802221A777B681B689B6903F461
:103BF0004073002B03D0786800F034FA05E0786851
:103C000000F027FA786800F036FA7B6800221A770D
:103C1000BB6803F00803002B20D0FB6803F0080307
:103C2000002B1BD07B681B686FF008021A617B6851
:103C300004221A777B681B68DB6903F00303002BFF
:103C400003D0786800F00EFA05E0786800F001FA19
:103C5000786800F010FA7B6800221A77BB6803F0DE
:103C60001003002B20D0FB6803F01003002B1BD0A7
:103C70007B681B686FF010021A617B6808221A7754
:103C80007B681B68DB6903F44073002B03D0786802
:103C900000F0E8F905E0786800F0DBF9786800F0FA
:103CA000EAF97B6800221A77BB6803F00103002B56
:103CB0000CD0FB6803F00103002B07D07B681B6866
:103CC0006FF001021A617868FDF7CCFDBB6803F064
:103CD0008003002B0CD0FB6803F08003002B07D07F
:103CE0007B681B686FF080021A61786800F0EDFC59
:103CF000BB6803F04003002B0CD0FB6803F04003CB
:103D0000002B07D07B681B686FF040021A6178684F
:103D100000F0BAF9BB6803F02003002B0CD0FB685D
:103D200003F02003002B07D07B681B686FF0200294
:103D30001A61786800F0C0FC00BF1037BD4680BD36
:103D400080B586B000AFF860B9607A600023FB757B
:103D5000FB6893F83C30012B01D10223AEE0FB68F5
:103D6000012283F83C207B680C2B00F29F8001A28B
:103D700052F823F0A93D0008AD3E0008AD3E000812
:103D8000AD3E0008E93D0008AD3E0008AD3E00082C
:103D9000AD3E00082B3E0008AD3E0008AD3E0008D9
:103DA000AD3E00086B3E0008FB681B68B96818460A
:103DB00000F0E2F9FB681B689A69FB681B6842F037
:103DC00008029A61FB681B689A69FB681B6822F00D
:103DD00004029A61FB681B689969BB681A69FB68F1
:103DE0001B680A439A6164E0FB681B68B96818465F
:103DF00000F028FAFB681B689A69FB681B6842F4AC
:103E000000629A61FB681B689A69FB681B6822F470
:103E100080629A61FB681B689969BB681B691A021A
:103E2000FB681B680A439A6143E0FB681B68B9683A
:103E3000184600F071FAFB681B68DA69FB681B68BA
:103E400042F00802DA61FB681B68DA69FB681B68EC
:103E500022F00402DA61FB681B68D969BB681A6941
:103E6000FB681B680A43DA6123E0FB681B68B968DA
:103E7000184600F0BBFAFB681B68DA69FB681B6830
:103E800042F40062DA61FB681B68DA69FB681B6850
:103E900022F48062DA61FB681B68D969BB681B6920
:103EA0001A02FB681B680A43DA6102E00123FB7512
:103EB00000BFFB68002283F83C20FB7D18461837C2
:103EC000BD4680BD80B584B000AF78603960002306
:103ED000FB737B6893F83C30012B01D10223B4E0E3
:103EE0007B68012283F83C207B68022283F83D2016
:103EF0007B681B689B68BB60BB6823F07703BB6073
:103F0000BB6823F47F43BB607B681B68BA689A6018
:103F10003B681B68B3F5005F3ED0B3F5005F00F26D
:103F20008780B3F5805F00F08680B3F5805F7FD82F
:103F3000702B1AD0702B7BD8602B50D0602B77D889
:103F4000502B3CD0502B73D8402B58D0402B6FD8DF
:103F5000302B64D0302B6BD8202B60D0202B67D82F
:103F6000002B5CD0102B5AD062E07B6818683B684D
:103F700099683B685A683B68DB6800F0FCFA7B682C
:103F80001B689B68BB60BB6843F07703BB607B68C2
:103F90001B68BA689A604FE07B6818683B6899684C
:103FA0003B685A683B68DB6800F0E5FA7B681B6891
:103FB0009A687B681B6842F480429A603CE07B68A8
:103FC00018683B6859683B68DB681A4600F05CFA81
:103FD0007B681B685021184600F0B3FA2CE07B6820
:103FE00018683B6859683B68DB681A4600F07AFA43
:103FF0007B681B686021184600F0A3FA1CE07B6810
:1040000018683B6859683B68DB681A4600F03CFA60
:104010007B681B684021184600F093FA0CE07B682F
:104020001A683B681B681946104600F08AFA03E0DC
:104030000123FB7300E000BF7B68012283F83D2071
:104040007B68002283F83C20FB7B18461037BD4676
:1040500080BD80B483B000AF786000BF0C37BD4630
:1040600080BC704780B483B000AF786000BF0C376D
:10407000BD4680BC704780B483B000AF786000BF9D
:104080000C37BD4680BC704780B483B000AF786009
:1040900000BF0C37BD4680BC7047000080B485B0BF
:1040A00000AF786039607B681B68FB607B682F4AD3
:1040B00093420BD07B68B3F1804F07D07B682C4ACA
:1040C000934203D07B682B4A934208D1FB6823F0CC
:1040D0007003FB603B685B68FA681343FB607B68B6
:1040E000224A93420BD07B68B3F1804F07D07B68A4
:1040F0001F4A934203D07B681E4A934208D1FB6853
:1041000023F44073FB603B68DB68FA681343FB6091
:10411000FB6823F080023B685B691343FB607B68AC
:10412000FA681A603B689A687B68DA623B681A68CA
:104130007B689A627B680D4A934203D13B681A6997
:104140007B681A637B6801225A617B681B6903F0F4
:104150000103002B05D07B681B6923F001027B68FB
:104160001A6100BF1437BD4680BC7047002C014067
:10417000000400400008004080B487B000AF7860C1
:1041800039607B681B6A7B617B681B6A23F00102D4
:104190007B681A627B685B683B617B689B69FB603C
:1041A000FB6823F07003FB60FB6823F00303FB60F4
:1041B0003B681B68FA681343FB607B6923F00203CA
:1041C0007B613B689B687A6913437B617B681C4A0F
:1041D00093420CD17B6923F008037B613B68DB6869
:1041E0007A6913437B617B6923F004037B617B68FD
:1041F000134A934211D13B6923F480733B613B69BD
:1042000023F400733B613B685B693A6913433B618C
:104210003B689B693A6913433B617B683A695A6022
:104220007B68FA689A613B685A687B685A637B6866
:104230007A691A6200BF1C37BD4680BC704700BF58
:10424000002C014080B487B000AF786039607B6893
:104250001B6A7B617B681B6A23F010027B681A6211
:104260007B685B683B617B689B69FB60FB6823F450
:10427000E043FB60FB6823F44073FB603B681B6812
:104280001B02FA681343FB607B6923F020037B6108
:104290003B689B681B017A6913437B617B681D4AFD
:1042A00093420DD17B6923F080037B613B68DB681F
:1042B0001B017A6913437B617B6923F040037B61B7
:1042C0007B68144A934213D13B6923F480633B61BA
:1042D0003B6923F400633B613B685B699B003A697F
:1042E00013433B613B689B699B003A6913433B6105
:1042F0007B683A695A607B68FA689A613B685A68D9
:104300007B689A637B687A691A6200BF1C37BD4676
:1043100080BC7047002C014080B487B000AF78604B
:1043200039607B681B6A7B617B681B6A23F480723F
:104330007B681A627B685B683B617B68DB69FB605A
:10434000FB6823F07003FB60FB6823F00303FB6052
:104350003B681B68FA681343FB607B6923F40073B6
:104360007B613B689B681B027A6913437B617B68B6
:104370001D4A93420DD17B6923F400637B613B6846
:10438000DB681B027A6913437B617B6923F48063DA
:104390007B617B68144A934213D13B6923F48053B9
:1043A0003B613B6923F400533B613B685B691B0144
:1043B0003A6913433B613B689B691B013A691343AC
:1043C0003B617B683A695A607B68FA68DA613B68EE
:1043D0005A687B68DA637B687A691A6200BF1C37A7
:1043E000BD4680BC704700BF002C014080B487B040
:1043F00000AF786039607B681B6A3B617B681B6A31
:1044000023F480527B681A627B685B687B617B68FF
:10441000DB69FB60FB6823F4E043FB60FB6823F48B
:104420004073FB603B681B681B02FA681343FB6028
:104430003B6923F400533B613B689B681B033A696B
:1044400013433B617B680F4A934209D17B6923F494
:1044500080437B613B685B699B017A6913437B61A5
:104460007B687A695A607B68FA68DA613B685A68E7
:104470007B681A647B683A691A6200BF1C37BD46C4
:1044800080BC7047002C014080B487B000AFF8605A
:10449000B9607A60FB681B6A7B61FB681B6A23F06A
:1044A0000102FB681A62FB689B693B613B6923F070
:1044B000F0033B617B681B013A6913433B617B69F5
:1044C00023F00A037B617A69BB6813437B61FB6855
:1044D0003A699A61FB687A691A6200BF1C37BD4667
:1044E00080BC704780B487B000AFF860B9607A6074
:1044F000FB681B6A7B61FB681B6A23F01002FB6888
:104500001A62FB689B693B613B6923F470433B6122
:104510007B681B033A6913433B617B6923F0A0036B
:104520007B61BB681B017A6913437B61FB683A6955
:104530009A61FB687A691A6200BF1C37BD4680BC6D
:10454000704780B485B000AF786039607B689B6845
:10455000FB60FB6823F07003FB603A68FB68134361
:1045600043F00703FB607B68FA689A6000BF14376A
:10457000BD4680BC704780B487B000AFF860B960BA
:104580007A603B60FB689B687B617B6923F47F43B7
:104590007B613B681A027B681A43BB6813437A69E4
:1045A00013437B61FB687A699A6000BF1C37BD4684
:1045B00080BC704780B487B000AFF860B9607A60A3
:1045C000BB6803F01F03012202FA03F37B61FB685F
:1045D0001A6A7B69DB431A40FB681A62FB681A6A35
:1045E000BB6803F01F03796801FA03F31A43FB6801
:1045F0001A6200BF1C37BD4680BC704780B485B0CE
:1046000000AF786039607B6893F83C30012B01D1B2
:10461000022346E07B68012283F83C207B6802226B
:1046200083F83D207B681B685B68FB607B681B68C8
:104630009B68BB60FB6823F07003FB603B681B68F2
:10464000FA681343FB607B681B68FA685A607B68F2
:104650001B68164A93420ED07B681B68B3F1804FEB
:1046600009D07B681B68124A934204D07B681B68A0
:10467000104A93420CD1BB6823F08003BB603B68B7
:104680005B68BA681343BB607B681B68BA689A6052
:104690007B68012283F83D207B68002283F83C2060
:1046A000002318461437BD4680BC7047002C0140DB
:1046B000000400400008004080B483B000AF786080
:1046C00000BF0C37BD4680BC704780B483B000AFDC
:1046D000786000BF0C37BD4680BC7047002B2DE9C9
:1046E000F0471D46BBBF03F100431D4600232D23A9
:1046F00088B01446B8BF1446129A109E1370149BCB
:10470000DDF84CA023F02008B8F1460F05D0B8F131
:10471000450F00D10136022300E0032307AA0492CB
:1047200006AACDE902A2CDE9003622462B4600F0CA
:1047300083FEB8F1470F074619D1119BDB070ED551
:1047400000EB06090022002320462946FCF72CF93D
:1047500008B1CDF81C903022079B4B451ED338463C
:10476000079B159ADB1B136008B0BDE8F087B8F112
:10477000460F00EB0609E5D10378302B0AD1002261
:10478000002320462946FCF70FF918B9C6F10106A7
:10479000CAF80060DAF800309944D3E7591C079151
:1047A0001A70D9E7F7B50029B6BF2D232B2349424C
:1047B00009290270437029DD0DF107031D460A2700
:1047C000B1FBF7F61A4607FB1614303402F8014C19
:1047D0000C46632C314603F1FF33F1DC3031941E7B
:1047E00003F8011C2346411CAB420AD30DF1090317
:1047F0009B1AAC4288BF002302330344181A03B04B
:10480000F0BD13F8016B01F8016FEDE73023303193
:104810008370C170031DF1E72DE9F04F91B00C4694
:10482000DDF8688016461F46054600F0F5FC036873
:1048300018460893FBF78CFC00230E93D8F8003041
:104840000990073323F0070303F1080294F818A036
:10485000D4F800B0C8F80020D3E9008929F000435B
:104860000B93CDF828804FF0FF32DDE90A01C4E94F
:1048700012899C4BFCF7CAF870BBDDE90A014FF0C6
:10488000FF32984BFCF7A4F830BB002200234046CF
:104890004946FCF793F810B12D2384F84330924A2F
:1048A000924BBAF1470F94BF9046984603234FF0BE
:1048B000000923612BF00403236033462146284678
:1048C00000970FAA00F0D4F9013040F090804FF02B
:1048D000FF3011B0BDE8F08F42464B464046494696
:1048E000FCF794F848B14B46002BB8BF2D23804A03
:1048F000B8BF84F843307F4BD3E763680AF0DF0129
:104900005A1C3FD10623636000224BF4806323606E
:1049100006920EAACDE904A20DAA03920DF133026C
:10492000CDE9013263684246009328464B460A911E
:10493000FFF7D4FE0A99804647290D9928D1C81C53
:1049400002DB6368994240DDAAF1020A5FFA8AFA43
:104950005246013904F150000D91FFF723FF0E9AE2
:1049600081461318012A236102DC2268D20701D58F
:10497000013323619DF83330002B9ED02D2384F822
:1049800043309AE74729BFD1002BBDD10123BAE7B5
:10499000BAF1650FDCD9BAF1660F18D10029636846
:1049A0000BDD216113B92268D00702D501330B4416
:1049B00023614FF00009A165DCE713B92268D20733
:1049C00001D50233F4E70123F2E74FF0670A0E9BAB
:1049D000994205DB23682161D807EAD54B1CE7E73C
:1049E0000029CCBF0122C1F102021344E0E7236891
:1049F0005A0507D42369424631462846B847013054
:104A00002BD164E7BAF1650F40F2DC80D4E91201E2
:104A100000220023FBF7C8FF002833D001233146D2
:104A20002846354AB84701303FF451AFDDE90D382B
:104A3000434502DB2368D8070FD5DDE9082331465B
:104A40002846B84701303FF442AF4FF0000908F163
:104A5000FF3804F11A0AC84509DC23689B0700F1F6
:104A60000281E0680F9B9842B8BF184631E70123E6
:104A7000524631462846B84701303FF428AF09F185
:104A80000109E8E70D9B002B38DC0123314628465D
:104A9000194AB84701303FF41AAFDDE90D3959EA38
:104AA000030302D12368D907D7D5DDE908233146AE
:104AB0002846B84701303FF40AAF4FF0000A04F12E
:104AC0001A0B0D9B5B42534501DC4B4693E70123D8
:104AD0005A4631462846B84701303FF4F8AE0AF14D
:104AE000010AEEE7FFFFEF7F5E74000862740008C2
:104AF000667400086A7400086E740008A36DDDF81F
:104B000038A05345A8BF5346002B994636DC4FF0DA
:104B1000000B29EAE97904F11A02A36D0A93A3EBC9
:104B200009035B4531DC0D9B9A453ADC2368DA07C3
:104B300037D40D9BAAEB03090A9BAAEB0303994503
:104B4000A8BF9946B9F1000F33DC4FF0000829EAFD
:104B5000E97904F11A0B0D9BAAEB0303A3EB0903FC
:104B600043457FF77AAF01235A4631462846B84776
:104B700001303FF4ACAE08F10108ECE742463146A3
:104B80002846B8470130C2D1A1E601233146284664
:104B90000A92B84701303FF49AAE0A9A0BF1010B22
:104BA000BBE73146DDE908232846B8470130C0D1CC
:104BB0008DE60A9A4B46314628464244B8470130B2
:104BC000C3D184E6DDF838A0BAF1010F01DCDB07C0
:104BD00036D50123424631462846B84701303FF4D6
:104BE00076AEDDE9082331462846B84701303FF468
:104BF0006EAED4E91201002200230AF1FF3AFBF75E
:104C0000D3FEC0B9534608F1010231462846B847E1
:104C100001300CD15BE601235A4631462846B8479D
:104C200001303FF454AE08F10108D045F3DB4B46A8
:104C300004F15002E0E64FF0000804F11A0BF4E72B
:104C400001234246E1E701234A4631462846B84758
:104C500001303FF43CAE08F10108E3680F995B1A9C
:104C60004345F0DCFDE64FF0000804F11909F4E7D4
:104C70002DE9F047164698468A680B690746934225
:104C8000B8BF1346336091F843200C46DDF82090FE
:104C90000AB1013333602368990642BF3368023397
:104CA0003360256815F0060506D104F1190AE3689A
:104CB00032689B1AAB422BDC94F843302268003BED
:104CC00018BF0123920630D44146384604F143020E
:104CD000C847013023D02368226903F00603042B60
:104CE00014BF002533684FF0000608BFE56804F1E3
:104CF0001A0408BFED1A54F8123C08BF25EAE575FE
:104D00009342C4BF9B1AED18B5421AD1002008E0A7
:104D10000123524641463846C847013003D14FF07F
:104D2000FF30BDE8F0870135C1E73020E11881F898
:104D300043005A1C94F845102244023382F8431071
:104D4000C2E70123224641463846C8470130E6D033
:104D50000136D9E72DE9FF470F7E9146782F80462F
:104D60000C469A460C9E01F1430207D8622F0AD8DE
:104D7000002F00F0D380582F00F0BA8004F14206D3
:104D800084F842703AE0A7F16303152BF6D801A12D
:104D900051F823F0ED4D0008014E00087D4D00084C
:104DA0007D4D00087D4D00087D4D0008014E000836
:104DB0007D4D00087D4D00087D4D00087D4D0008AB
:104DC000034F00082B4E0008BD4E00087D4D000823
:104DD0007D4D0008254F00087D4D00082B4E000832
:104DE0007D4D00087D4D0008C54E000833681A1D32
:104DF0001B68326004F1420684F8423001239EE0D1
:104E000033682068191D3160060601D51D6803E06E
:104E10004506FBD5B3F90050002D03DA2D236D4272
:104E200084F843300A23594811E0216833680806A2
:104E300053F8045B02D4490648BFADB26F2F33600C
:104E400014BF0A2308235148002184F843106668E0
:104E5000002EA8BF2168A660A4BF21F00401216034
:104E60000DB9002E4BD01646B5FBF3F103FB1157DD
:104E7000C75D06F8017D2F46BB420D46F4D9082BCD
:104E80000BD12368DF0708D5236961689942DEBF2B
:104E9000302306F8013C06F1FF36921B22614B4697
:104EA00021464046CDF800A003AAFFF7E1FE0130FD
:104EB0004AD14FF0FF3004B0BDE8F087236843F0DB
:104EC000200323607827324884F8457023683168CE
:104ED0001F0651F8045B02D45F0648BFADB23160D3
:104EE000D90744BF43F0200323601DB11023ABE773
:104EF0002648E9E7236823F020032360F6E71646F7
:104F0000BDE733682568181D616930602E061B688F
:104F100001D5196002E06806FBD51980002316460A
:104F20002361BCE7336800211A1D32601E68626885
:104F3000304600F0E8F908B1801B606063682361C7
:104F4000002384F84330AAE73246494640462369A5
:104F5000D0470130ADD023689B0713D4E068039B92
:104F60009842B8BF1846A6E7012332464946404654
:104F7000D04701309DD00135E36803995B1AAB42FD
:104F8000F2DCEBE7002504F11906F5E77074000880
:104F900081740008002310B50446C0E90033C0E95D
:104FA0000433836081814366C2818361194608228C
:104FB0005C3000F028F90D4B246263620C4BA36255
:104FC0000C4BE3620C4B23630C4B9C4206D003F169
:104FD0006802944202D0D0339C4205D104F15800BB
:104FE000BDE8104000F08CB910BD00BF8151000831
:104FF000A3510008DB510008FF510008D402002033
:10500000024A0349034800F069B800BF10000020BD
:10501000756C00082000002041680C4B10B59942C7
:10502000044601D001F026FEA168094B994202D046
:10503000204601F01FFEE168064B994204D020464D
:10504000BDE8104001F016BE10BD00BFD402002024
:105050003C030020A403002010B50B4B0B4C0C4A62
:1050600020461A6004210022FFF794FF04F1680033
:1050700001220921FFF78EFF04F1D0000222BDE8D2
:1050800010401221FFF786BF0C040020D40200203C
:1050900001500008014800F034B900BF1504002099
:1050A000014800F02FB900BF1504002010B50446D8
:1050B000FFF7F0FF236A1BB1BDE81040FFF7F0BF18
:1050C000044B2362044B1B68002BF5D1FFF7C4FF90
:1050D000F2E700BF195000080C0400202DE9F84346
:1050E0000746884614460026D4E90195B9F101091E
:1050F00005D52468002CF7D13046BDE8F883AB898C
:10510000012B07D9B5F90E30013303D029463846B3
:10511000C04706436835E9E70CB430B5174B0C1EA1
:105120001D689DB008DA8B234FF0FF302B601DB057
:10513000BDE8304002B070474FF40273ADF8143050
:105140000CBF234604F1FF33049307934FF6FF731C
:1051500002900690ADF81630284621AB209A02A99D
:10516000019301F00BFC431CBCBF8B232B60002C74
:10517000DDD00022029B1A70D9E700BF1C0000207E
:1051800010B50C46B1F90E1000F06CF80028ABBF5A
:10519000636DA3891B1823F48053ACBF6365A3819F
:1051A00010BD2DE9F0411F468B890546DB050C46F5
:1051B000164605D502230022B1F90E1000F040F882
:1051C000A389324623F48053A38128463B46B4F991
:1051D0000E10BDE8F04100F057B810B50C46B1F91B
:1051E0000E1000F02DF8431CA38915BF606523F451
:1051F000805343F48053A38118BFA38110BDB1F93C
:105200000E1000F00DB803460244934200D17047DF
:1052100003F8011BF9E70000004870475C0100201B
:1052200038B50023054D044608462B60FCF761FDA8
:10523000431C02D12B6803B1236038BD1004002049
:1052400038B50446084611460022054D2A601A4624
:10525000FCF773FD431C02D12B6803B1236038BDFA
:105260001004002038B50446084611460022054DBA
:105270002A601A46FCF704FD431C02D12B6803B1D7
:10528000236038BD1004002038B504460846114696
:105290000022054D2A601A46FCF70FFD431C02D17F
:1052A0002B6803B1236038BD10040020014B18683F
:1052B000704700BF1C00002070B500260C4D0D4C3F
:1052C000641BA410A64209D102F070F800260A4D12
:1052D0000A4C641BA410A64205D170BD55F8043BCE
:1052E00098470136EEE755F8043B98470136F2E758
:1052F000D8770008D8770008D8770008DC7700084E
:10530000704770477047034610B5C9B202449342D4
:10531000184601D1002003E0047801338C42F6D115
:1053200010BD2DE9F74F03690C690746A3427EDBE8
:10533000013CA30000F1140501F11408009305EBF2
:105340008403019358F8243055F8242001339A42FD
:10535000B2FBF3F608EB84092ED34FF0000AC446E3
:10536000AE46D3465CF8043B98B206FB00A01B0C8B
:10537000020C06FB0323DEF8002080B292B2121A60
:105380005A44DEF800004FEA134A9BB2C3EB2243B3
:1053900003EB104392B242EA0342E1454FEA234B4A
:1053A0004EF8042BDED2009BEB582BB9019B043B3B
:1053B0009D421A462FD33C61384601F07BF9002804
:1053C00025DB2946002058F8042BD1F800C01FFA2D
:1053D00082FE1FFA8CF3A3EB0E030344120CC2EB04
:1053E000234202EB1C429BB243EA0243C1454FEA0F
:1053F000224041F8043BE6D255F8242005EB840313
:1054000022B9043B9D421A460BD33C61013630461B
:1054100003B0BDE8F08F1268043B002ACBD1013CF9
:10542000C6E71268043B002AEFD1013CEAE70020FE
:10543000EEE70000000000002DE9F04F14461D4685
:10544000C76997B08346CDE90245239E7FB91020F6
:1054500000F002FE0246CBF81C0020B9EF21A84B59
:10546000A84801F067FCC0E901770760C760DBF876
:105470001C30196859B15A68012393404A608B6007
:10548000584600F0DFFE0022DBF81C301A602B1EAD
:10549000AFBF0023012223F000430393A8BF336072
:1054A000DDF80C80984BB8BF326033EA080312D1A4
:1054B00042F20F73229A1360C8F31303234300F0E0
:1054C0005085249BDFF844A2002B00F052850AF19E
:1054D000030300F04CBDDDE90223CDE90C23DDE937
:1054E0000C0100220023FBF75FFA074658B10123A5
:1054F000229A1360249B13B1854B249A1360DFF822
:1055000014A200F036BD14AB019315AB00935846BE
:10551000DDE90C2301F07EF9C8F30A568146002E1E
:1055200077D0DDE90C010D9BA6F2FF36C3F3130320
:1055300043F07F5343F44013129719460022764BF1
:10554000FAF712FE68A3D3E90023FAF7C5FF68A3B0
:10555000D3E90023FAF70AFE044630460D46FAF76F
:1055600051FF65A3D3E90023FAF7B6FF02460B46C5
:1055700020462946FAF7FAFD04460D46FBF75CFA89
:1055800000220746002320462946FBF717FA40B1C0
:105590003846FAF737FF22462B46FBF705FA00B9E3
:1055A000013F162F53D8DDE90C015C4B03EBC70319
:1055B000D3E90023FBF702FA00284AD00023013F79
:1055C0000F93149B9B1B5A1E46BFC3F10108002377
:1055D0004FF00008099248BF0993002F3BDB099B5D
:1055E0000E973B44099300230A93209B092B66D80E
:1055F000052BC4BF043B2093209BC8BF0024A3F10C
:105600000203D8BF0124032B64D8DFE803F02B3852
:105610003656DDE914631E4406F23243202BC1BF27
:10562000C3F1400308FA03F806F2124324FA03F325
:10563000D6BFC3F1200348EA030004FA03F0FAF7E7
:10564000D1FE0122A1F1F873013E129275E7012308
:10565000B6E70F90B5E77B420A930023A8EB070853
:105660000E93C2E700230B93219B002B35DC012313
:105670001A46CDE9073321920BE00123F3E700231B
:105680000B93219BFB1808930133012B0793B8BFA1
:10569000012300210422DBF81C0002F114059D42C5
:1056A0001FD94160584600F08DFD8246002839D14F
:1056B000024640F2AF111A4BD2E60123E0E7012483
:1056C00000230B9420934FF0FF330022CDE90733E2
:1056D0001223D0E701230B93F5E7219BCDE9073394
:1056E000D7E701315200D8E761436F63A787D23F04
:1056F000B3C8608B288AC63FFB799F501344D33FC1
:105700009F740008B67400080000F07F9B740008C6
:105710006F7400086E7400080000F83FB075000850
:105720000E750008DBF81C301860079B0E2B00F28A
:10573000A480002C00F0A180002F33DD864B07F001
:105740000F0203EBC203F805D3E90034CDE90434BA
:105750004FEA271416D5DDE90C01804B0326D3E967
:105760000823FAF7E3FFCDE9020104F00F047B4DB3
:1057700054B9DDE90423DDE90201FAF7D7FFCDE9E9
:10578000020128E00226F2E7E10708D5DDE904017D
:10579000D5E90023FAF7A0FECDE904010136641033
:1057A0000835E5E700F0D280DDE90C017C426A4B68
:1057B00004F00F0203EBC203D3E90023FAF78CFED7
:1057C00002260023CDE90201644D2411002C40F093
:1057D000B280002BD3D1DDE902450F9B002B00F0F6
:1057E000B7800022204629465D4BFBF7E7F80028EA
:1057F00000F0AE80079B002B00F0AA80089B002BD6
:1058000037DD7B1E2046049300222946554BFAF7CC
:1058100063FECDE90201089C01363046FAF7F2FD3D
:10582000DDE90223FAF758FE00224F4BFAF79EFCFF
:105830000546A1F15076002C40F09A80DDE9020186
:1058400000224A4BFAF790FC02460B46CDE90223B0
:105850002A463346FBF7D0F8002840F08E82DDE977
:1058600002012A4606F10043FBF7A8F8002840F0A1
:105870002781DDE90C34CDE90234159B002BC0F201
:1058800063810E2F00F36081334B03EBC703D3E931
:105890000034CDE90434219B002B03DA079B002B55
:1058A00040F30081DDE902455646DDE90423204648
:1058B0002946FAF73BFFFBF7BFF88046FAF7A2FD4F
:1058C000DDE90423FAF708FE02460B462046294686
:1058D000FAF74AFC08F13004079D06F8014BA6EBE5
:1058E0000A04A54202460B4640F01681FAF73EFC38
:1058F000DDE9042304460D46FBF77EF8002840F05E
:10590000F880DDE9042320462946FBF74DF818B15D
:1059100018F0010F40F0ED804946584600F092FC27
:1059200000233370229B01371F60249B002B00F063
:1059300020831E601DE3E20705D5D5E90023FAF7B1
:10594000CBFD01230136641008353FE7022642E70C
:10595000079C049761E700BFB075000888750008D0
:105960000000F03F0000244000001C4000001440F4
:10597000704B0B9903EBC40353E9022354440029F1
:1059800045D000206C49FAF7D1FE33462A46FAF793
:10599000EBFB5646CDE91001DDE90201FBF74CF8BF
:1059A0000546FAF72FFD02460B46DDE90201FAF73C
:1059B000DBFB02460B463035CDE90223DDE910233F
:1059C00006F8015BFAF7FAFF002863D1DDE902234C
:1059D00000205A49FAF7C8FBDDE91023FAF7EEFF79
:1059E000002840F08780A6423FF443AFDDE9100174
:1059F0000022534BFAF770FD0022CDE91001DDE9DA
:105A000002014F4BFAF768FDCDE90201C4E73146C8
:105A10002846FAF761FD5646CDE910011394DDE9F9
:105A20000201FBF709F80546FAF7ECFC02460B46C3
:105A3000DDE90201FAF798FB02460B46303506F81D
:105A4000015BA642CDE902234FF0000224D1DDE93B
:105A50001001394BFAF78AFB02460B46DDE90201D9
:105A6000FAF7CAFF002845D1DDE9102300203249AA
:105A7000FAF77AFB02460B46DDE90201FAF79EFFD0
:105A800000283FF4F6AE139E731E139316F8013CE4
:105A9000302BF8D0049F3FE7294BFAF71DFDCDE9E5
:105AA0000201BCE70CD1DDE904010022254BFAF725
:105AB00013FDDDE90223FAF795FF002800F05B8172
:105AC00000242546219B5646DB43049300272146AC
:105AD000584600F0B7FB002DDCD02FB1AF4203D009
